{
  "_format": "hh-sol-artifact-1",
  "contractName": "LendingPlatform",
  "sourceName": "contracts/LendingPlatform.sol",
  "abi": [
    {
      "inputs": [
        {
          "internalType": "address",
          "name": "_oracle",
          "type": "address"
        }
      ],
      "stateMutability": "nonpayable",
      "type": "constructor"
    },
    {
      "anonymous": false,
      "inputs": [
        {
          "indexed": false,
          "internalType": "address",
          "name": "token",
          "type": "address"
        }
      ],
      "name": "CollateralAdded",
      "type": "event"
    },
    {
      "anonymous": false,
      "inputs": [
        {
          "indexed": false,
          "internalType": "uint256",
          "name": "loanId",
          "type": "uint256"
        },
        {
          "indexed": false,
          "internalType": "address",
          "name": "borrower",
          "type": "address"
        },
        {
          "indexed": false,
          "internalType": "uint256",
          "name": "principal",
          "type": "uint256"
        },
        {
          "indexed": false,
          "internalType": "uint256",
          "name": "rate",
          "type": "uint256"
        },
        {
          "indexed": false,
          "internalType": "address",
          "name": "collateralToken",
          "type": "address"
        },
        {
          "indexed": false,
          "internalType": "uint256",
          "name": "collateralAmount",
          "type": "uint256"
        }
      ],
      "name": "LoanDisbursed",
      "type": "event"
    },
    {
      "anonymous": false,
      "inputs": [
        {
          "indexed": false,
          "internalType": "uint256",
          "name": "loanId",
          "type": "uint256"
        },
        {
          "indexed": false,
          "internalType": "address",
          "name": "borrower",
          "type": "address"
        },
        {
          "indexed": false,
          "internalType": "uint256",
          "name": "amount",
          "type": "uint256"
        }
      ],
      "name": "LoanRepaid",
      "type": "event"
    },
    {
      "anonymous": false,
      "inputs": [
        {
          "indexed": true,
          "internalType": "address",
          "name": "borrower",
          "type": "address"
        },
        {
          "indexed": false,
          "internalType": "uint256",
          "name": "score",
          "type": "uint256"
        }
      ],
      "name": "ScoreUpdated",
      "type": "event"
    },
    {
      "inputs": [
        {
          "internalType": "address",
          "name": "_token",
          "type": "address"
        }
      ],
      "name": "addCollateralToken",
      "outputs": [],
      "stateMutability": "nonpayable",
      "type": "function"
    },
    {
      "inputs": [
        {
          "internalType": "uint256",
          "name": "_principal",
          "type": "uint256"
        },
        {
          "internalType": "uint256",
          "name": "_tenure",
          "type": "uint256"
        },
        {
          "internalType": "uint256",
          "name": "_collateralAmount",
          "type": "uint256"
        },
        {
          "internalType": "address",
          "name": "_collateralToken",
          "type": "address"
        }
      ],
      "name": "applyForLoan",
      "outputs": [],
      "stateMutability": "payable",
      "type": "function"
    },
    {
      "inputs": [
        {
          "internalType": "address",
          "name": "",
          "type": "address"
        }
      ],
      "name": "borrowerRiskScore",
      "outputs": [
        {
          "internalType": "uint256",
          "name": "",
          "type": "uint256"
        }
      ],
      "stateMutability": "view",
      "type": "function"
    },
    {
      "inputs": [
        {
          "internalType": "uint256",
          "name": "",
          "type": "uint256"
        }
      ],
      "name": "loans",
      "outputs": [
        {
          "internalType": "uint256",
          "name": "loanId",
          "type": "uint256"
        },
        {
          "internalType": "address",
          "name": "borrower",
          "type": "address"
        },
        {
          "internalType": "uint256",
          "name": "principal",
          "type": "uint256"
        },
        {
          "internalType": "uint256",
          "name": "interestRate",
          "type": "uint256"
        },
        {
          "internalType": "uint256",
          "name": "tenure",
          "type": "uint256"
        },
        {
          "internalType": "uint256",
          "name": "collateralAmount",
          "type": "uint256"
        },
        {
          "internalType": "address",
          "name": "collateralToken",
          "type": "address"
        },
        {
          "internalType": "bool",
          "name": "isRepaid",
          "type": "bool"
        }
      ],
      "stateMutability": "view",
      "type": "function"
    },
    {
      "inputs": [],
      "name": "nextLoanId",
      "outputs": [
        {
          "internalType": "uint256",
          "name": "",
          "type": "uint256"
        }
      ],
      "stateMutability": "view",
      "type": "function"
    },
    {
      "inputs": [
        {
          "internalType": "address",
          "name": "_borrower",
          "type": "address"
        },
        {
          "internalType": "uint256",
          "name": "_score",
          "type": "uint256"
        }
      ],
      "name": "setRiskScore",
      "outputs": [],
      "stateMutability": "nonpayable",
      "type": "function"
    },
    {
      "inputs": [
        {
          "internalType": "address",
          "name": "",
          "type": "address"
        }
      ],
      "name": "supportedCollateral",
      "outputs": [
        {
          "internalType": "bool",
          "name": "",
          "type": "bool"
        }
      ],
      "stateMutability": "view",
      "type": "function"
    },
    {
      "inputs": [],
      "name": "trustedOracle",
      "outputs": [
        {
          "internalType": "address",
          "name": "",
          "type": "address"
        }
      ],
      "stateMutability": "view",
      "type": "function"
    }
  ],
  "bytecode": "0x6080604052600160045534801561001557600080fd5b506040516113b43803806113b4833981810160405281019061003791906100e1565b80600160006101000a81548173ffffffffffffffffffffffffffffffffffffffff021916908373ffffffffffffffffffffffffffffffffffffffff1602179055505061010e565b600080fd5b600073ffffffffffffffffffffffffffffffffffffffff82169050919050565b60006100ae82610083565b9050919050565b6100be816100a3565b81146100c957600080fd5b50565b6000815190506100db816100b5565b92915050565b6000602082840312156100f7576100f661007e565b5b6000610105848285016100cc565b91505092915050565b6112978061011d6000396000f3fe60806040526004361061007b5760003560e01c8063cfd3fe471161004e578063cfd3fe471461013a578063e1ec3c6814610156578063e20485031461019a578063fa550eba146101c55761007b565b80632991889914610080578063310f8059146100a9578063726daa0a146100d257806387c514591461010f575b600080fd5b34801561008c57600080fd5b506100a760048036038101906100a29190610a89565b610202565b005b3480156100b557600080fd5b506100d060048036038101906100cb9190610aec565b610324565b005b3480156100de57600080fd5b506100f960048036038101906100f49190610a89565b61048e565b6040516101069190610b3b565b60405180910390f35b34801561011b57600080fd5b506101246104a6565b6040516101319190610b3b565b60405180910390f35b610154600480360381019061014f9190610b56565b6104ac565b005b34801561016257600080fd5b5061017d60048036038101906101789190610bbd565b61093b565b604051610191989796959493929190610c14565b60405180910390f35b3480156101a657600080fd5b506101af6109e0565b6040516101bc9190610c92565b60405180910390f35b3480156101d157600080fd5b506101ec60048036038101906101e79190610a89565b610a06565b6040516101f99190610cad565b60405180910390f35b600160009054906101000a900473ffffffffffffffffffffffffffffffffffffffff1673ffffffffffffffffffffffffffffffffffffffff163373ffffffffffffffffffffffffffffffffffffffff1614610292576040517f08c379a000000000000000000000000000000000000000000000000000000000815260040161028990610d4b565b60405180910390fd5b6001600360008373ffffffffffffffffffffffffffffffffffffffff1673ffffffffffffffffffffffffffffffffffffffff16815260200190815260200160002060006101000a81548160ff0219169083151502179055507f7db05e63d635a68c62fd7fd8f3107ae8ab584a383e102d1bd8a40f4c977e465f816040516103199190610c92565b60405180910390a150565b600160009054906101000a900473ffffffffffffffffffffffffffffffffffffffff1673ffffffffffffffffffffffffffffffffffffffff163373ffffffffffffffffffffffffffffffffffffffff16146103b4576040517f08c379a00000000000000000000000000000000000000000000000000000000081526004016103ab90610d4b565b60405180910390fd5b60648111156103f8576040517f08c379a00000000000000000000000000000000000000000000000000000000081526004016103ef90610db7565b60405180910390fd5b80600260008473ffffffffffffffffffffffffffffffffffffffff1673ffffffffffffffffffffffffffffffffffffffff168152602001908152602001600020819055508173ffffffffffffffffffffffffffffffffffffffff167f66ead48cfe0e1d1aa8bad492e906c348dfcfeecbf3b7b2cdf9b1f3cfa42a2945826040516104829190610b3b565b60405180910390a25050565b60026020528060005260406000206000915090505481565b60045481565b6000600260003373ffffffffffffffffffffffffffffffffffffffff1673ffffffffffffffffffffffffffffffffffffffff16815260200190815260200160002054905060008111610533576040517f08c379a000000000000000000000000000000000000000000000000000000000815260040161052a90610e49565b60405180910390fd5b600073ffffffffffffffffffffffffffffffffffffffff168273ffffffffffffffffffffffffffffffffffffffff16036105ae578234146105a9576040517f08c379a00000000000000000000000000000000000000000000000000000000081526004016105a090610eb5565b60405180910390fd5b610743565b600360008373ffffffffffffffffffffffffffffffffffffffff1673ffffffffffffffffffffffffffffffffffffffff16815260200190815260200160002060009054906101000a900460ff1661063a576040517f08c379a000000000000000000000000000000000000000000000000000000000815260040161063190610f21565b60405180910390fd5b6000341461067d576040517f08c379a000000000000000000000000000000000000000000000000000000000815260040161067490610fb3565b60405180910390fd5b60008273ffffffffffffffffffffffffffffffffffffffff166323b872dd3330876040518463ffffffff1660e01b81526004016106bc93929190610fd3565b6020604051808303816000875af11580156106db573d6000803e3d6000fd5b505050506040513d601f19601f820116820180604052508101906106ff9190611036565b905080610741576040517f08c379a0000000000000000000000000000000000000000000000000000000008152600401610738906110d5565b60405180910390fd5b505b60008160646107529190611153565b9050600060405180610100016040528060045481526020013373ffffffffffffffffffffffffffffffffffffffff1681526020018881526020018381526020018781526020018681526020018573ffffffffffffffffffffffffffffffffffffffff1681526020016000151581525090806001815401808255809150506001900390600052602060002090600702016000909190919091506000820151816000015560208201518160010160006101000a81548173ffffffffffffffffffffffffffffffffffffffff021916908373ffffffffffffffffffffffffffffffffffffffff16021790555060408201518160020155606082015181600301556080820151816004015560a0820151816005015560c08201518160060160006101000a81548173ffffffffffffffffffffffffffffffffffffffff021916908373ffffffffffffffffffffffffffffffffffffffff16021790555060e08201518160060160146101000a81548160ff0219169083151502179055505050600460008154809291906108df90611184565b91905055507f4b194e59d08b0bc0dfc4c2c2480b27e4e8aff847361b4dd7c4d3b3c2caa4cd6c600160045461091491906111cc565b338884878960405161092b96959493929190611200565b60405180910390a1505050505050565b6000818154811061094b57600080fd5b90600052602060002090600702016000915090508060000154908060010160009054906101000a900473ffffffffffffffffffffffffffffffffffffffff16908060020154908060030154908060040154908060050154908060060160009054906101000a900473ffffffffffffffffffffffffffffffffffffffff16908060060160149054906101000a900460ff16905088565b600160009054906101000a900473ffffffffffffffffffffffffffffffffffffffff1681565b60036020528060005260406000206000915054906101000a900460ff1681565b600080fd5b600073ffffffffffffffffffffffffffffffffffffffff82169050919050565b6000610a5682610a2b565b9050919050565b610a6681610a4b565b8114610a7157600080fd5b50565b600081359050610a8381610a5d565b92915050565b600060208284031215610a9f57610a9e610a26565b5b6000610aad84828501610a74565b91505092915050565b6000819050919050565b610ac981610ab6565b8114610ad457600080fd5b50565b600081359050610ae681610ac0565b92915050565b60008060408385031215610b0357610b02610a26565b5b6000610b1185828601610a74565b9250506020610b2285828601610ad7565b9150509250929050565b610b3581610ab6565b82525050565b6000602082019050610b506000830184610b2c565b92915050565b60008060008060808587031215610b7057610b6f610a26565b5b6000610b7e87828801610ad7565b9450506020610b8f87828801610ad7565b9350506040610ba087828801610ad7565b9250506060610bb187828801610a74565b91505092959194509250565b600060208284031215610bd357610bd2610a26565b5b6000610be184828501610ad7565b91505092915050565b610bf381610a4b565b82525050565b60008115159050919050565b610c0e81610bf9565b82525050565b600061010082019050610c2a600083018b610b2c565b610c37602083018a610bea565b610c446040830189610b2c565b610c516060830188610b2c565b610c5e6080830187610b2c565b610c6b60a0830186610b2c565b610c7860c0830185610bea565b610c8560e0830184610c05565b9998505050505050505050565b6000602082019050610ca76000830184610bea565b92915050565b6000602082019050610cc26000830184610c05565b92915050565b600082825260208201905092915050565b7f43616c6c6572206973206e6f74207468652074727573746564204f7261636c6560008201527f2f4261636b656e642e0000000000000000000000000000000000000000000000602082015250565b6000610d35602983610cc8565b9150610d4082610cd9565b604082019050919050565b60006020820190508181036000830152610d6481610d28565b9050919050565b7f53636f7265206d757374206265206265747765656e203020616e64203130302e600082015250565b6000610da1602083610cc8565b9150610dac82610d6b565b602082019050919050565b60006020820190508181036000830152610dd081610d94565b9050919050565b7f5269736b2073636f7265206973206d697373696e67206f7220696e76616c696460008201527f2e00000000000000000000000000000000000000000000000000000000000000602082015250565b6000610e33602183610cc8565b9150610e3e82610dd7565b604082019050919050565b60006020820190508181036000830152610e6281610e26565b9050919050565b7f496e636f72726563742045544820636f6c6c61746572616c2073656e742e0000600082015250565b6000610e9f601e83610cc8565b9150610eaa82610e69565b602082019050919050565b60006020820190508181036000830152610ece81610e92565b9050919050565b7f546f6b656e206e6f7420737570706f727465642e000000000000000000000000600082015250565b6000610f0b601483610cc8565b9150610f1682610ed5565b602082019050919050565b60006020820190508181036000830152610f3a81610efe565b9050919050565b7f446f206e6f742073656e6420455448207769746820455243323020636f6c6c6160008201527f746572616c2e0000000000000000000000000000000000000000000000000000602082015250565b6000610f9d602683610cc8565b9150610fa882610f41565b604082019050919050565b60006020820190508181036000830152610fcc81610f90565b9050919050565b6000606082019050610fe86000830186610bea565b610ff56020830185610bea565b6110026040830184610b2c565b949350505050565b61101381610bf9565b811461101e57600080fd5b50565b6000815190506110308161100a565b92915050565b60006020828403121561104c5761104b610a26565b5b600061105a84828501611021565b91505092915050565b7f546f6b656e207472616e73666572206661696c65642e20436865636b20616c6c60008201527f6f77616e63652e00000000000000000000000000000000000000000000000000602082015250565b60006110bf602783610cc8565b91506110ca82611063565b604082019050919050565b600060208201905081810360008301526110ee816110b2565b9050919050565b7f4e487b7100000000000000000000000000000000000000000000000000000000600052601260045260246000fd5b7f4e487b7100000000000000000000000000000000000000000000000000000000600052601160045260246000fd5b600061115e82610ab6565b915061116983610ab6565b925082611179576111786110f5565b5b828204905092915050565b600061118f82610ab6565b91507fffffffffffffffffffffffffffffffffffffffffffffffffffffffffffffffff82036111c1576111c0611124565b5b600182019050919050565b60006111d782610ab6565b91506111e283610ab6565b92508282039050818111156111fa576111f9611124565b5b92915050565b600060c0820190506112156000830189610b2c565b6112226020830188610bea565b61122f6040830187610b2c565b61123c6060830186610b2c565b6112496080830185610bea565b61125660a0830184610b2c565b97965050505050505056fea2646970667358221220517a38c5bf530269167cedf4622a1d55d9c108ec37bcdf4e1cfbffdb305cbf7f64736f6c634300081c0033",
  "linkReferences": {},
  "deployedLinkReferences": {}
}