{
  "_format": "hh-sol-artifact-1",
  "contractName": "LendingPlatform",
  "sourceName": "contracts/LendingPlatform.sol",
  "abi": [
    {
      "inputs": [
        {
          "internalType": "address",
          "name": "_oracle",
          "type": "address"
        }
      ],
      "stateMutability": "nonpayable",
      "type": "constructor"
    },
    {
      "anonymous": false,
      "inputs": [
        {
          "indexed": false,
          "internalType": "uint256",
          "name": "loanId",
          "type": "uint256"
        },
        {
          "indexed": false,
          "internalType": "address",
          "name": "borrower",
          "type": "address"
        },
        {
          "indexed": false,
          "internalType": "uint256",
          "name": "principal",
          "type": "uint256"
        },
        {
          "indexed": false,
          "internalType": "uint256",
          "name": "rate",
          "type": "uint256"
        }
      ],
      "name": "LoanDisbursed",
      "type": "event"
    },
    {
      "anonymous": false,
      "inputs": [
        {
          "indexed": false,
          "internalType": "uint256",
          "name": "loanId",
          "type": "uint256"
        },
        {
          "indexed": false,
          "internalType": "address",
          "name": "borrower",
          "type": "address"
        },
        {
          "indexed": false,
          "internalType": "uint256",
          "name": "amount",
          "type": "uint256"
        }
      ],
      "name": "LoanRepaid",
      "type": "event"
    },
    {
      "anonymous": false,
      "inputs": [
        {
          "indexed": true,
          "internalType": "address",
          "name": "borrower",
          "type": "address"
        },
        {
          "indexed": false,
          "internalType": "uint256",
          "name": "score",
          "type": "uint256"
        }
      ],
      "name": "ScoreUpdated",
      "type": "event"
    },
    {
      "inputs": [
        {
          "internalType": "uint256",
          "name": "_principal",
          "type": "uint256"
        },
        {
          "internalType": "uint256",
          "name": "_tenure",
          "type": "uint256"
        },
        {
          "internalType": "uint256",
          "name": "_collateral",
          "type": "uint256"
        }
      ],
      "name": "applyForLoan",
      "outputs": [],
      "stateMutability": "payable",
      "type": "function"
    },
    {
      "inputs": [
        {
          "internalType": "address",
          "name": "",
          "type": "address"
        }
      ],
      "name": "borrowerRiskScore",
      "outputs": [
        {
          "internalType": "uint256",
          "name": "",
          "type": "uint256"
        }
      ],
      "stateMutability": "view",
      "type": "function"
    },
    {
      "inputs": [
        {
          "internalType": "uint256",
          "name": "",
          "type": "uint256"
        }
      ],
      "name": "loans",
      "outputs": [
        {
          "internalType": "uint256",
          "name": "loanId",
          "type": "uint256"
        },
        {
          "internalType": "address",
          "name": "borrower",
          "type": "address"
        },
        {
          "internalType": "uint256",
          "name": "principal",
          "type": "uint256"
        },
        {
          "internalType": "uint256",
          "name": "interestRate",
          "type": "uint256"
        },
        {
          "internalType": "uint256",
          "name": "tenure",
          "type": "uint256"
        },
        {
          "internalType": "uint256",
          "name": "collateral",
          "type": "uint256"
        },
        {
          "internalType": "bool",
          "name": "isRepaid",
          "type": "bool"
        }
      ],
      "stateMutability": "view",
      "type": "function"
    },
    {
      "inputs": [],
      "name": "nextLoanId",
      "outputs": [
        {
          "internalType": "uint256",
          "name": "",
          "type": "uint256"
        }
      ],
      "stateMutability": "view",
      "type": "function"
    },
    {
      "inputs": [
        {
          "internalType": "address",
          "name": "_borrower",
          "type": "address"
        },
        {
          "internalType": "uint256",
          "name": "_score",
          "type": "uint256"
        }
      ],
      "name": "setRiskScore",
      "outputs": [],
      "stateMutability": "nonpayable",
      "type": "function"
    },
    {
      "inputs": [],
      "name": "trustedOracle",
      "outputs": [
        {
          "internalType": "address",
          "name": "",
          "type": "address"
        }
      ],
      "stateMutability": "view",
      "type": "function"
    }
  ],
  "bytecode": "0x6080604052600160035534801561001557600080fd5b50604051610c60380380610c60833981810160405281019061003791906100e1565b80600160006101000a81548173ffffffffffffffffffffffffffffffffffffffff021916908373ffffffffffffffffffffffffffffffffffffffff1602179055505061010e565b600080fd5b600073ffffffffffffffffffffffffffffffffffffffff82169050919050565b60006100ae82610083565b9050919050565b6100be816100a3565b81146100c957600080fd5b50565b6000815190506100db816100b5565b92915050565b6000602082840312156100f7576100f661007e565b5b6000610105848285016100cc565b91505092915050565b610b438061011d6000396000f3fe6080604052600436106100555760003560e01c8063310f80591461005a578063726daa0a1461008357806387c51459146100c0578063e1ec3c68146100eb578063e20485031461012e578063fc24578314610159575b600080fd5b34801561006657600080fd5b50610081600480360381019061007c9190610651565b610175565b005b34801561008f57600080fd5b506100aa60048036038101906100a59190610691565b6102df565b6040516100b791906106cd565b60405180910390f35b3480156100cc57600080fd5b506100d56102f7565b6040516100e291906106cd565b60405180910390f35b3480156100f757600080fd5b50610112600480360381019061010d91906106e8565b6102fd565b604051610125979695949392919061073f565b60405180910390f35b34801561013a57600080fd5b5061014361037c565b60405161015091906107ae565b60405180910390f35b610173600480360381019061016e91906107c9565b6103a2565b005b600160009054906101000a900473ffffffffffffffffffffffffffffffffffffffff1673ffffffffffffffffffffffffffffffffffffffff163373ffffffffffffffffffffffffffffffffffffffff1614610205576040517f08c379a00000000000000000000000000000000000000000000000000000000081526004016101fc9061089f565b60405180910390fd5b6064811115610249576040517f08c379a00000000000000000000000000000000000000000000000000000000081526004016102409061090b565b60405180910390fd5b80600260008473ffffffffffffffffffffffffffffffffffffffff1673ffffffffffffffffffffffffffffffffffffffff168152602001908152602001600020819055508173ffffffffffffffffffffffffffffffffffffffff167f66ead48cfe0e1d1aa8bad492e906c348dfcfeecbf3b7b2cdf9b1f3cfa42a2945826040516102d391906106cd565b60405180910390a25050565b60026020528060005260406000206000915090505481565b60035481565b6000818154811061030d57600080fd5b90600052602060002090600702016000915090508060000154908060010160009054906101000a900473ffffffffffffffffffffffffffffffffffffffff16908060020154908060030154908060040154908060050154908060060160009054906101000a900460ff16905087565b600160009054906101000a900473ffffffffffffffffffffffffffffffffffffffff1681565b6000600260003373ffffffffffffffffffffffffffffffffffffffff1673ffffffffffffffffffffffffffffffffffffffff16815260200190815260200160002054905060008111610429576040517f08c379a00000000000000000000000000000000000000000000000000000000081526004016104209061099d565b60405180910390fd5b60008160646104389190610a1b565b905060006040518060e0016040528060035481526020013373ffffffffffffffffffffffffffffffffffffffff1681526020018781526020018381526020018681526020018581526020016000151581525090806001815401808255809150506001900390600052602060002090600702016000909190919091506000820151816000015560208201518160010160006101000a81548173ffffffffffffffffffffffffffffffffffffffff021916908373ffffffffffffffffffffffffffffffffffffffff16021790555060408201518160020155606082015181600301556080820151816004015560a0820151816005015560c08201518160060160006101000a81548160ff02191690831515021790555050506003600081548092919061056190610a4c565b91905055507fa17f99bd4547aa4c1ccc3829b6f6b53285043ac310a536743995ea2ae594520f60016003546105969190610a94565b3387846040516105a99493929190610ac8565b60405180910390a15050505050565b600080fd5b600073ffffffffffffffffffffffffffffffffffffffff82169050919050565b60006105e8826105bd565b9050919050565b6105f8816105dd565b811461060357600080fd5b50565b600081359050610615816105ef565b92915050565b6000819050919050565b61062e8161061b565b811461063957600080fd5b50565b60008135905061064b81610625565b92915050565b60008060408385031215610668576106676105b8565b5b600061067685828601610606565b92505060206106878582860161063c565b9150509250929050565b6000602082840312156106a7576106a66105b8565b5b60006106b584828501610606565b91505092915050565b6106c78161061b565b82525050565b60006020820190506106e260008301846106be565b92915050565b6000602082840312156106fe576106fd6105b8565b5b600061070c8482850161063c565b91505092915050565b61071e816105dd565b82525050565b60008115159050919050565b61073981610724565b82525050565b600060e082019050610754600083018a6106be565b6107616020830189610715565b61076e60408301886106be565b61077b60608301876106be565b61078860808301866106be565b61079560a08301856106be565b6107a260c0830184610730565b98975050505050505050565b60006020820190506107c36000830184610715565b92915050565b6000806000606084860312156107e2576107e16105b8565b5b60006107f08682870161063c565b93505060206108018682870161063c565b92505060406108128682870161063c565b9150509250925092565b600082825260208201905092915050565b7f43616c6c6572206973206e6f74207468652074727573746564204f7261636c6560008201527f2f4261636b656e642e0000000000000000000000000000000000000000000000602082015250565b600061088960298361081c565b91506108948261082d565b604082019050919050565b600060208201905081810360008301526108b88161087c565b9050919050565b7f53636f7265206d757374206265206265747765656e203020616e64203130302e600082015250565b60006108f560208361081c565b9150610900826108bf565b602082019050919050565b60006020820190508181036000830152610924816108e8565b9050919050565b7f5269736b2073636f7265206973206d697373696e67206f7220696e76616c696460008201527f2e00000000000000000000000000000000000000000000000000000000000000602082015250565b600061098760218361081c565b91506109928261092b565b604082019050919050565b600060208201905081810360008301526109b68161097a565b9050919050565b7f4e487b7100000000000000000000000000000000000000000000000000000000600052601260045260246000fd5b7f4e487b7100000000000000000000000000000000000000000000000000000000600052601160045260246000fd5b6000610a268261061b565b9150610a318361061b565b925082610a4157610a406109bd565b5b828204905092915050565b6000610a578261061b565b91507fffffffffffffffffffffffffffffffffffffffffffffffffffffffffffffffff8203610a8957610a886109ec565b5b600182019050919050565b6000610a9f8261061b565b9150610aaa8361061b565b9250828203905081811115610ac257610ac16109ec565b5b92915050565b6000608082019050610add60008301876106be565b610aea6020830186610715565b610af760408301856106be565b610b0460608301846106be565b9594505050505056fea264697066735822122058354d1d60641972859334871b207522e641b57662912a76ed27714392a73ebe64736f6c634300081c0033",
  "linkReferences": {},
  "deployedLinkReferences": {}
}